:020000040000FA
:1000000015280F3982073F3406345B344F34663489
:100010006D347D3407347F34673477347C3439343D
:060020005E3479347134F6
:04002600003400346E
:06002A00302043205520A8
:100030008B20AA01AB01A801A901AC01AE012A14D1
:100040009C206C20A720BD207C208420DD20EE2079
:10005000F3202008013CAF000318052907292028B8
:100060008316031788018809831603138501850900
:1000700088018601870189018312031385018801A4
:100080008601870108008316031300309F00831246
:10009000031341309F0008008316031300309F00B4
:1000A0008312031349309F000800831603131812AC
:1000B0001815831603178711831603131930990037
:1000C0009A01831203139817181318168316031333
:1000D00098168312031308000000000000000000BF
:1000E00000000000000000000000000008000A30CE
:1000F0002608A60B792808000A30A7007720A70B4E
:100100007E2808002B1884282B108C1E08001A0843
:10011000AC00AE000800831603139C3092008312DB
:1001200003139D151D1583120313073092009715B5
:1001300017159710171008004320831203136C2023
:100140009F149F18A1281E08A000950008004C20AD
:10015000831203136C209F149F18AC281E08A10063
:1001600008002A18BD28AA18B6280800AA102A14C0
:100170000C1E08002008990008002A10AA140C1E62
:1001800008002108990008008312031700308D0031
:10019000831203130608831203178C0083160317B8
:1001A0008C130C158B1355308D00AA308D008C14D8
:1001B0008B170C11831203130800003083120317EE
:1001C0008D00831603178C130C14831203170C086D
:1001D000831203138800831203130800831203138E
:1001E0002E0886000800831203132C083039AC0057
:1001F0002C1AFF28AC1A02290F309B000800463049
:100200009B000800FC309B000800C4202028202808
:02400E00DC20B4
:02401000FF3F70
:00000001FF
