:020000040000FA
:020000000328D3
:040002000034003492
:0A000600232039204B208120AA019D
:10001000AB01A801A901AC01AE010A30B4002A1459
:10002000922062209D20B32072207A20D320E420E9
:10003000E920881B0B2988190D29081B0F29081D89
:100040000229FE28102883160317880188098316C1
:10005000031385018509081188150817881786017B
:1000600087018901831203138501880186018701B5
:1000700008008316031300309F00831203134130DE
:100080009F0008008316031300309F0083120313A0
:1000900049309F00080083160313181218158316A1
:1000A0000317871183160313193099009A018312DD
:1000B0000313981718131816831603139816831230
:1000C0000313080000000000000000000000000012
:1000D000000000000000000008000A302608A60BFF
:1000E0006F2808000A30A7006D20A70B74280800AD
:1000F0002B187A282B108C1E08001A08AC00AE00B2
:100100000800831603139C309200831203139D157D
:100110001D158312031307309200971517159710BA
:100120001710080039208312031362209F149F18B0
:1001300097281E08A0009500080042208312031390
:1001400062209F149F18A2281E08A10008002A18E8
:10015000B328AA18AC280800AA102A140C1E0800FC
:100160002008990008002A10AA140C1E0800210873
:10017000990008008312031700308D0083120313C7
:100180000608831203178C00831603178C130C15B3
:100190008B1355308D00AA308D008C148B170C11E9
:1001A0008312031308000030831203178D00831697
:1001B00003178C130C14831203170C0883120313F8
:1001C0008800831203130800831203132E0886008D
:1001D0000800831203132C083039AC002C1AF528C0
:1001E000AC1AF8280F309B00080046309B0008002E
:1001F000FC309B000800BA2010281028FF2880013E
:1002000008111028810A3430010203190829102826
:1002100081010815102809151F2809111F28091127
:020220001F2895
:02400E00DC20B4
:02401000FF3F70
:00000001FF
