:020000040000FA
:020000000328D3
:040002000034003492
:0A00060028203E2050208620D7203D
:10001000AA01AB01A801A901AC01AE01B3010A30EC
:10002000B1000A30B200B4002A1497206720A22041
:10003000B82077207F20E620EB20881BFD28881938
:100040000029081B03290621B20B15282F2115288A
:100050008316031788018809831603138501850910
:1000600008118815081788178601870189018312EE
:100070000313850188018601870108008316031395
:1000800000309F008312031341309F000800831645
:10009000031300309F008312031349309F000800B0
:1000A0008316031318121815831603178711831666
:1000B0000313193099009A01831203139817181328
:1000C00018168316031398168312031308000000F2
:1000D0000000000000000000000000000000000020
:1000E000000008000A302608A60B742808000A3011
:1000F000A7007220A70B792808002B187F282B1047
:100100008C1E08001A08AC00AE000800831603130A
:100110009C309200831203139D151D158312031347
:1001200007309200971517159710171008003E20FA
:100130008312031367209F149F189C281E08A00099
:100140009500080047208312031367209F149F180F
:10015000A7281E08A10008002A18B828AA18B12844
:100160000800AA102A140C1E080030089900080084
:100170002A10AA140C1E08002108990008008312F6
:10018000031700308D00831203130908831203172D
:100190008C00831603178C130C158B1355308D00B0
:1001A000AA308D008C140C11831203130800003048
:1001B000831203178D00831603178C130C148312FC
:1001C00003170C088900831203130800831203131A
:1001D0002E0886000800831203132C083039AC0067
:1001E0002C1AF728AC1AFA280F309B00080046306A
:1001F0009B000800FC309B0008000915BF20232845
:100200000911BF2023283230B40023280000000049
:1002100000000000000000000000000000000000DE
:1002200000000000000000000000000000000000CE
:1002300000000000000000000000000000000000BE
:1002400000000000000000000000000000000000AE
:10025000000000000000000000000000080034085A
:10026000B2000819352908150800081108000A30DD
:0A027000B2000819352908151528F9
:02400E00DC20B4
:02401000FF3F70
:00000001FF
