:020000040000FA
:020000000328D3
:040002000034003492
:0A000600232039204B208120D22056
:10001000AA01AB01A801A901AC01AE010A30B100EF
:100020002A14922062209D20B32072207A20E120A1
:10003000E620881B082988190B29081B0E29081D92
:10004000FF28FB28112883160317880188098316C7
:10005000031385018509081188150817881786017B
:1000600087018901831203138501880186018701B5
:1000700008008316031300309F00831203134130DE
:100080009F0008008316031300309F0083120313A0
:1000900049309F00080083160313181218158316A1
:1000A0000317871183160313193099009A018312DD
:1000B0000313981718131816831603139816831230
:1000C0000313080000000000000000000000000012
:1000D000000000000000000008000A302608A60BFF
:1000E0006F2808000A30A7006D20A70B74280800AD
:1000F0002B187A282B108C1E08001A08AC00AE00B2
:100100000800831603139C309200831203139D157D
:100110001D158312031307309200971517159710BA
:100120001710080039208312031362209F149F18B0
:1001300097281E08A0009500080042208312031390
:1001400062209F149F18A2281E08A10008002A18E8
:10015000B328AA18AC280800AA102A140C1E0800FC
:100160003008990008002A10AA140C1E0800210863
:10017000990008008312031700308D0083120313C7
:100180000908831203178C00831603178C130C15B0
:100190008B1355308D00AA308D008C140C118312F6
:1001A000031308000030831203178D008316031712
:1001B0008C130C14831203170C0889008312031389
:1001C0000800831203132E0886000800831203130D
:1001D0002C083039AC002C1AF228AC1AF5280F3054
:1001E0009B00080046309B000800FC309B00080084
:1001F000BA2011281128FC28800108111128810A31
:10020000313001020319052911288101081511282F
:100210000915BA201F280911BA201F280911BA2070
:020220001F2895
:02400E00DC20B4
:02401000FF3F70
:00000001FF
