:020000040000FA
:1000000015280F3982073F3406345B344F34663489
:100010006D347D3407347F34673477347C3439343D
:060020005E3479347134F6
:04002600003400346E
:06002A00292033204520CF
:10003000332056209F149F181B281E08A0009500EF
:100040003C2056209F149F1823281E08A1009B00C7
:10005000182883160317880188098316031385015E
:100060008509870108008316031300309F0083125F
:10007000031341309F0008008316031300309F00D4
:100080008312031349309F000800831603139C302A
:100090009200831203139D151D158312031307305D
:1000A0009200971517159710171008000000000010
:1000B0000000000000000000000000000000000040
:1000C000080028302408A40B632808002830A50065
:0800D0006120A50B682808005F
:02400E00D420BC
:02401000FF3F70
:00000001FF
