:020000040000FA
:1000000015280F3982073F3406345B344F34663489
:100010006D347D3407347F34673477347C3439343D
:060020005E3479347134F6
:04002600003400346E
:06002A004F2062206B2054
:100030009F149F1819281E08A0008700A100A20085
:100040004020881C17288818232827201728831267
:10005000031700308D008312031307088312031760
:100060008C00831603178C130C158B1355308D00E1
:10007000AA308D008C148B170C1183120313080007
:100080000030831203178D00831603178C130C1492
:10009000831203170C0886008312031308008316CB
:1000A00003178801880983160313850185098814BD
:1000B00086018701831203138501860187010A30B7
:1000C000A50008008316031300309F00831203135A
:1000D00041309F0008000000000000000000000008
:1000E0000000000000000000000008002830230885
:1000F000A30B782808002830A4007620A40B7D28C4
:020100000800F5
:02400E00D420BC
:02401000FF3F70
:00000001FF
