:020000040000FA
:1000000015280F3982073F3406345B344F34663489
:100010006D347D3407347F34673477347C3439343D
:060020005E3479347134F6
:04002600003400346E
:06002A00232035203E20DA
:100030001F1155209F149F181B281E08A000712017
:100040006B207620182883160317880188098316E9
:100050000313850185098801860187018312031333
:10006000850188018601870108008316031300308B
:100070009F008312031341309F000800831603136F
:1000800018121815831603178715831603131930D2
:1000900099009A01831203139817181318168316E0
:1000A00003139816831203130800000000000000D9
:1000B0000000000000000000000000000000080038
:1000C00028302308A30B622808002830A4006020F1
:1000D000A40B672808008C1E08001A08A100A200C3
:1000E00008000C1E080020089900080086018814EA
:1000F0000811210801208600652086018810081556
:0C010000220EA2000120860065200800ED
:02400E00D420BC
:02401000FF3F70
:00000001FF
