:020000040000FA
:1000000015280F3982073F3406345B344F34663489
:100010006D347D3407347F34673477347C3439343D
:060020005E3479347134F6
:04002600003400346E
:06002A00272039204B20C5
:10003000AD01AA01AC012D14F320B5206220FD20F2
:10004000D4207E207820892083208E201C288316AF
:100050000317880188098316031385018509880120
:1000600086018701831203138501880186018701B8
:1000700008008316031300309F00831203134130DE
:100080009F0008008316031300309F0083120313A0
:1000900049309F00080083160313181218158316A1
:1000A0000317871583160313193099009A018312D9
:1000B0000313981718131816831603139816831230
:1000C0000313080000000000000000000000000012
:1000D000000000000000000008000A302608A60BFF
:1000E0006F2808000A30A7006D20A70B74280800AD
:1000F0008C1E08001A08A200A30008000C1E0800AD
:100100002A08990008008C1E08001A08A400A500FF
:1001100008000C1E08002C089900080086018814AD
:100120000811881108122208012086007220860119
:100130008810081588110812230EA30001208600DC
:1001400072208601881008118815081224080120E1
:100150008600722086018810081188110816250E65
:10016000A5000120860072200800BF302002031C79
:10017000BC283430AA0008008F302002031CC3289A
:100180003330AA0008006F302002031CCA28323026
:10019000AA0008003F302002031CD1283130AA00F9
:1001A00008003030AA000800BF302102031CDB2801
:1001B0003430AC0008008F302102031CE2283330B9
:1001C000AC0008006F302102031CE9283230AC007B
:1001D00008003F302102031CF0283130AC00080039
:1001E0003030AC00080039208312031362209F14C2
:1001F0009F18F8281E08A00008004220831203134D
:0E02000062209F149F1802291E08A10008000A
:02400E00D420BC
:02401000FF3F70
:00000001FF
