:020000040000FA
:1000000015280F3982073F3406345B344F34663489
:100010006D347D3407347F34673477347C3439343D
:060020005E3479347134F6
:04002600003400346E
:06002A00302042205420AA
:100030004220831203136B209F149F181D281E0853
:10004000A000872081204B20831203136B209F1474
:100050009F1828281E08A10092208C20972018287D
:100060008316031788018809831603138501850900
:1000700088018601870183120313850188018601A7
:10008000870108008316031300309F0083120313B7
:1000900041309F0008008316031300309F00831235
:1000A000031349309F000800831603131812181514
:1000B00083160317871583160313193099009A01C5
:1000C0008312031398171813181683160313981620
:1000D000831203130800000000000000000000006D
:1000E0000000000000000000000008000A302608A0
:1000F000A60B782808000A30A7007620A70B7D28D9
:1001000008008C1E08001A08A200A30008000C1E9C
:1001100008002008990008008C1E08001A08A40096
:10012000A50008000C1E080021089900080086019F
:1001300088140811881108122208012086007B20EB
:1001400086018810081588110812230EA3000120CB
:1001500086007B2086018810081188150812240863
:10016000012086007B20860188100811881108165E
:0C017000250EA500012086007B20080061
:02400E00D420BC
:02401000FF3F70
:00000001FF
