:020000040000FA
:1000000015280F3982073F3406345B344F34663489
:100010006D347D3407347F34673477347C3439343D
:060020005E3479347134F6
:04002600003400346E
:06002A003520472059209B
:10003000A201A301A401A501AD01AE01AA01AC0179
:10004000AF01B0012D142E14CA2086207020862006
:10005000D4208620DE2086202F08A200A3003008AE
:10006000A400A500A3208620242883160317880156
:100070008809831603138501850988018601870194
:100080008312031385018801860187010800831606
:10009000031300309F008312031341309F000800B8
:1000A0008316031300309F008312031349309F000F
:1000B00008008316031318121815831603178711E7
:1000C00083160313193099009A01831203139817AA
:1000D00018131816831603139816831203130800B7
:1000E0000000000000000000000000000000000010
:1000F0000000000008000A302608A60B7D28080032
:100100000A30A7007B20A70B822808002E188B2816
:10011000AE18972808002E10AE148C1E08001A087E
:10012000AF0008000C1E08002008990008002E14DB
:10013000AE108C1E08001A08B00008000C1E080043
:1001400021089900080086018814081188110812F6
:100150002208012086008020860188100815881159
:100160000812230EA300012086008020860188103B
:1001700008118815081224080120860080208601B5
:100180008810081188110816250EA5000120860088
:100190008020080047208312031370209F149F18AB
:1001A000CF281E08A00008005020831203137020DF
:1001B0009F149F18D9281E08A10008002D18F128A7
:1001C000AD18EA2808002D112D140C1E08000A3065
:1001D00099000800AD102D140C1E0800200899008D
:1001E00008002D10AD140C1E08002108990008000D
:02400E00D420BC
:02401000FF3F70
:00000001FF
