:020000040000FA
:1000000015280F3982073F3406345B344F34663489
:100010006D347D3407347F34673477347C3439343D
:060020005E3479347134F6
:04002600003400346E
:06002A0028203A204C20C2
:10003000AD01AA01AC012D14F4206320FE2008219B
:100040002008A200A3002108A400A5008F201C28DE
:100050008316031788018809831603138501850910
:1000600088018601870183120313850188018601B7
:10007000870108008316031300309F0083120313C7
:1000800041309F0008008316031300309F00831245
:10009000031349309F000800831603131812181524
:1000A00083160317871183160313193099009A01D9
:1000B0008312031398171813181683160313981630
:1000C000831203130800000000000000000000007D
:1000D0000000000000000000000008000A302608B0
:1000E000A60B702808000A30A7006E20A70B752801
:1000F00008008C1E08001A08A200A30008000C1EAD
:1001000008002008990008008C1E08001A08A400A6
:10011000A50008000C1E08002108990008008601AF
:100120008814081188110812220801208600732003
:1001300086018810081588110812230EA3000120DB
:10014000860073208601881008118815081224087B
:100150000120860073208601881008118811081676
:10016000250EA5000120860073200800BF30200264
:10017000031CBD283430AA0008008F302002031C65
:10018000C4283330AA0008006F302002031CCB289B
:100190003230AA0008003F302002031CD228313040
:1001A000AA0008003030AA000800BF302102031C5A
:1001B000DC283430AC0008008F302102031CE32817
:1001C0003330AC0008006F302102031CEA283230C3
:1001D000AC0008003F302102031CF1283130AC0094
:1001E00008003030AC0008003A208312031363206B
:1001F0009F149F18F9281E08A000080043208312AE
:10020000031363209F149F1803291E08A1000800F0
:100210002D181D29AD1816292D190F2908002D118B
:100220002D140C1E08000A3099000800AD102D1581
:100230000C1E08002008990008002D10AD140C1E9B
:080240000800210899000800E4
:02400E00D420BC
:02401000FF3F70
:00000001FF
