:020000040000FA
:1000000015280F3982073F3406345B344F34663489
:100010006D347D3407347F34673477347C3439343D
:060020005E3479347134F6
:04002600003400346E
:06002A00302042205420AA
:10003000A201A301A401A501AD01AE01AA01AC0179
:10004000AF01B0012D14C0206B20CA20D420812024
:100050002F08A200A3003008A400A500992023289F
:100060008316031788018809831603138501850900
:1000700088018601870183120313850188018601A7
:10008000870108008316031300309F0083120313B7
:1000900041309F0008008316031300309F00831235
:1000A000031349309F000800831603131812181514
:1000B00083160317871183160313193099009A01C9
:1000C0008312031398171813181683160313981620
:1000D000831203130800000000000000000000006D
:1000E0000000000000000000000008000A302608A0
:1000F000A60B782808000A30A7007620A70B7D28D9
:1001000008002E188E282E148C1E08001A08AF0026
:1001100008000C1E08002008990008002E108C1EF4
:1001200008001A08B00008000C1E080021089900F9
:10013000080086018814081188110812220801207D
:1001400086007B2086018810081588110812230E6E
:10015000A300012086007B208601881008118815E5
:1001600008122408012086007B20860188100811CF
:1001700088110816250EA500012086007B200800A6
:100180004220831203136B209F149F18C5281E085A
:10019000A00008004B20831203136B209F149F18AC
:1001A000CF281E08A10008002D18E728AD18E02868
:1001B00008002D112D140C1E08000A3099000800AB
:1001C000AD102D140C1E08002008990008002D10F9
:0C01D000AD140C1E080021089900080066
:02400E00DC20B4
:02401000FF3F70
:00000001FF
