:020000040000FA
:1000000015280F3982073F3406345B344F34663489
:100010006D347D3407347F34673477347C3439343D
:060020005E3479347134F6
:04002600003400346E
:06002A002C203E204720BF
:100030001F115E209F149F181B281E08A0007A2005
:1000400074201F155E209F149F1824281E08A100ED
:1000500085207F208A2018288316031788018809A5
:1000600083160313850185098801860187018312A0
:100070000313850188018601870108008316031395
:1000800000309F008312031341309F000800831645
:1000900003131812181583160317871583160313F5
:1000A000193099009A018312031398171813181620
:1000B0008316031398168312031308000000000030
:1000C0000000000000000000000000000000000030
:1000D000080028302608A60B6B2808002830A70047
:1000E0006920A70B702808008C1E08001A08A200BF
:1000F000A30008000C1E08002008990008008C1EB0
:1001000008001A08A400A50008000C1E0800210819
:100110009900080086018814081188110812220825
:10012000012086006E2086018810081588110812AB
:10013000230EA300012086006E208601881008117E
:10014000881508122408012086006E208601881078
:10015000081188110816250EA500012086006E20C2
:02016000080095
:02400E00D420BC
:02401000FF3F70
:00000001FF
