:020000040000FA
:1000000015280F3982073F3406345B344F34663489
:100010006D347D3407347F34673477347C3439343D
:060020005E3479347134F6
:04002600003400346E
:06002A00302042205420AA
:10003000A201A301A401A501AA01AB01A801A90184
:10004000AC01AD012A14B6206B20C020CA2081204B
:100050002C08A200A3002D08A400A5008F202328AF
:100060008316031788018809831603138501850900
:1000700088018601870183120313850188018601A7
:10008000870108008316031300309F0083120313B7
:1000900041309F0008008316031300309F00831235
:1000A000031349309F000800831603131812181514
:1000B00083160317871183160313193099009A01C9
:1000C0008312031398171813181683160313981620
:1000D000831203130800000000000000000000006D
:1000E0000000000000000000000008000A302608A0
:1000F000A60B782808000A30A7007620A70B7D28D9
:1001000008002B1889282B148C1E08001A08AC0034
:1001100008002B108C1E08001A08AD00080086018C
:1001200088140811881108122208012086007B20FB
:1001300086018810081588110812230EA3000120DB
:1001400086007B2086018810081188150812240873
:10015000012086007B20860188100811881108166E
:10016000250EA500012086007B2008004220831276
:1001700003136B209F149F18BB281E08A0000800C3
:100180004B20831203136B209F149F18C5281E0851
:10019000A10008002A18D628AA18CF280800AA10FB
:1001A0002A140C1E08002008990008002A10AA141E
:0A01B0000C1E080021089900080049
:02400E00DC20B4
:02401000FF3F70
:00000001FF
